:02000000832B50
:1000060083120313F801F9011030FC00710DF80D8D
:10001600F90D7408F8027508031C750FF902031828
:100026001B287408F80775080318750FF9070310DD
:0A003600F00DF10DFC0B0928080085
:1000400083120313B603B6033608003C03182D28A9
:10005000B60300000000000024280000000000009B
:0600600000000000080092
:10006600403083120313F0001F30F100F201F30158
:02007600080080
:1000780083120313FB01FA01F901F801A001730DC2
:10008800F80D7408F8027508031C750FF902760854
:10009800031C760FFA027708031C770FFB02000196
:1000A800031C0130A002F30D0730FC00730DF80D9E
:1000B800F90DFA0DFB0DA00D7408731C7528F802D4
:1000C8007508031C750FF9027608031C760FFA02EF
:1000D8007708031C770FFB020001031C0130A00204
:1000E8008628F80775080318750FF90776080318A6
:1000F800760FFA0777080318770FFB070001031834
:100108000130A007F30DFC0B5A28720DF80DF90DFC
:10011800FA0DFB0DA00D7408731CA428F8027508CD
:10012800031C750FF9027608031C760FFA0277088C
:10013800031C770FFB020001031C0130A002B52845
:10014800F80775080318750FF90776080318760F6E
:10015800FA0777080318770FFB0700010318013027
:10016800A007F20D0730FC00720DF80DF90DFA0D1D
:10017800FB0DA00D7408721CD328F8027508031C27
:10018800750FF9027608031C760FFA027708031C2C
:10019800770FFB020001031C0130A002E428F807D6
:1001A80075080318750FF90776080318760FFA070C
:1001B80077080318770FFB07000103180130A00721
:1001C800F20DFC0BB828710DF80DF90DFA0DFB0DA9
:1001D800A00D7408721C0229F8027508031C750F1B
:1001E800F9027608031C760FFA027708031C770FCA
:1001F800FB020001031C0130A0021329F80775084F
:100208000318750FF90776080318760FFA077708A9
:100218000318770FFB07000103180130A007F10D41
:100228000730FC00710DF80DF90DFA0DFB0DA00D4E
:100238007408711C3129F8027508031C750FF9023E
:100248007608031C760FFA027708031C770FFB0267
:100258000001031C0130A0024229F80775080318A1
:10026800750FF90776080318760FFA077708031849
:10027800770FFB07000103180130A007F10DFC0BF5
:100288001629700DF80DF90DFA0DFB0DA00D740867
:10029800711C6029F8027508031C750FF9027608AD
:1002A800031C760FFA027708031C770FFB02000184
:1002B800031C0130A0027129F80775080318750F8F
:1002C800F90776080318760FFA0777080318770FE7
:1002D800FB07000103180130A007F00D0730FC00F0
:1002E800700DF80DF90DFA0DFB0DA00D7408701CBA
:1002F8008F29F8027508031C750FF9027608031C8C
:10030800760FFA027708031C770FFB020001031C23
:100318000130A002A029F80775080318750FF9071E
:1003280076080318760FFA0777080318770FFB0784
:10033800000103180130A007F00DFC0B7429701898
:10034800B3297408F80775080318750FF9077608B4
:100358000318760FFA0777080318770FFB070800CA
:10036800831203132230FC00F801F901FA01FB01A2
:10037800FC030319EA290310FB0CFA0CF90CF80C1E
:10038800F30CF20CF10CF00C031CBC29FC03031950
:10039800DC297408F80775080318750FF90776083B
:1003A8000318760FFA0777080318770FFB07C02999
:1003B8007408F80775080318750FF9077608031805
:0E03C800760FFA0777080318770FFB07080077
:1003D6003320E830F4000330F500F601F701B421CC
:1003E6007008B2007108B3007208B4007308B50053
:1003F6002A08F4002B08F500F601F7013C207008E6
:10040600B2007108B3007208B4007308B500700832
:10041600F5007108F6007208F7007308F800F80C8A
:10042600F70CF60CF50CF813F80CF70CF60CF50CAB
:10043600F8137508F0007608F1007708F2007808DE
:10044600F300F30CF20CF10CF00CF3137008AE0091
:100456007108AF0033202C08F4002D08F500F601D2
:10046600F701B4212E08F9002F08FA00FB01FC0160
:100476000330F8007908F4007A08F5007B08F600E6
:100486007C08F700780803194F2AF40DF50DF60DD0
:10049600F70D7410FF3E462A3C207008B200710822
:1004A600B3007208B4007308B5000A30F4000030D7
:1004B600F5002E08F0002F08F10003207008AE00AA
:1004C6007108AF0000307102031D6B2A0330700201
:1004D60003186E2ABB2A250884003508003C031D34
:1004E6007E2A3408003C031D7E2A3308003C031D87
:1004F6007E2A3208003C0318B92A230880042F08F4
:100506000319952AB001B10100303102031D8D2A6D
:100516002F0830020318952AB6012020B00A0319C5
:10052600B10A872A2E08B6002020240880052F0845
:100536000319AD2AB001B10100303102031DA52A0D
:100546002F0830020318AD2AB6012020B00A03197D
:10055600B10A9F2A2E08B60020200130B202031CE1
:10056600B302031CB402031CB502702A24088005DA
:0205760008007B
:10057800843083120313AA000330AB007830AC0038
:100588000030AD00EB214E30FC00EB30FD00FD0BE0
:10059800CB2AFC0BCB2ABC30AA000230AB00783047
:1005A800AC000030AD00EB214E30FC00EB30FD001C
:1005B800FD0BDC2AFC0BDC2AF430AA000130AB006E
:1005C8007830AC000030AD00EB214E30FC00EB3051
:1005D800FD00FD0BED2AFC0BED2AFA30AA00AB0159
:0A05E800FA30AC00AD01EB21080071
:1005F2000B3083120313AA000230AB007830AC0038
:100602000030AD00EB214E30FC00EB30FD00FD0B65
:10061200082BFC0B082B9330AA000230AB00783079
:10062200AC000030AD00EB214E30FC00EB30FD00A1
:10063200FD0B192BFC0B192B1030AA000330AB0059
:100642007830AC000030AD00EB214E30FC00EB30D6
:10065200FD00FD0B2A2BFC0B2A2B1730AA000430BD
:0E066200AB002C30AC000130AD00EB210800E5
:10067000C43083120313AA000930AB007830AC00F9
:080680000030AD00EB21080081
:1006880083120313A801A901071C612B0330FC0086
:100698009730FD00FD0B4E2BFC0B4E2B000000008D
:1006A800A80A0319A90A05302902031D5D2BDC30AD
:1006B8002802031C602B612B482B2808F00029080E
:0406C800F100080035
:1006CC00831203132808A5002908F1000130F0005B
:1006DC0071080319752BF00D7010FF3E6F2B70080D
:1006EC00A300F0097008A40080302807840070086B
:0A06FC0080058413700880050800D3
:10070600831603178801890103130714071183123F
:1007160087010730A8000230A90066230430FB00D9
:100726000C30FC003330FD00FD0B972BFC0B972B98
:10073600FB0B972B00000000071CE32B44237008DB
:10074600A6007108A70000307102031DAC2B3230E1
:100756007002031CB82B00302702031DB42BFA309D
:1007660026020318B82B3823D32B00302702031D8B
:10077600BE2BFA302602031CCA2B02302702031DA9
:10078600C62BEE3026020318CA2BBC22D32B02300E
:100796002702031DD02BEE302602031CD32BF92291
:1007A600071CD62BD32B0230FB000430FC00BA30DA
:1007B600FD00FD0BDC2BFC0BDC2BFB0BDC2B00000C
:0407C6009F2BE42B56
:04400E00F22F000786
:00000001FF
